:100000000C945D000C9485000C9485000C94850084
:100010000C9485000C9485000C9485000C9485004C
:100020000C9485000C9485000C9485000C9485003C
:100030000C9485000C9485000C9485000C9485002C
:100040000C941E050C9485000C948E050C94680588
:100050000C9485000C9485000C9485000C9485000C
:100060000C9485000C94850000000008000201003B
:100070000003040700000000000000000000000072
:10008000250028002B0000000000240027002A0083
:10009000040404040404040402020202020203032E
:1000A0000303030301020408102040800102040836
:1000B0001020010204081020C00511241FBECFEF3C
:1000C000D8E0DEBFCDBF11E0A0E0B1E0EEE5F7E1A2
:1000D00002C005900D92AE38B107D9F722E0AEE824
:1000E000B1E001C01D92A437B207E1F710E0CDE501
:1000F000D0E004C02197FE010E94A20BCC35D107AD
:10010000C9F70E940A060C94AD0B0C94000090E015
:10011000FC01EC55FF4F2491FC01E057FF4F849107
:10012000882399F090E0880F991FFC01EA57FF4F50
:10013000A591B491FC01E458FF4F859194918FB73C
:10014000F894EC91E22BEC938FBF089590E0FC01C2
:10015000E859FF4F2491FC01EC55FF4F3491FC010D
:10016000E057FF4FE491EE2309F43CC0222339F11C
:10017000233091F038F42130A9F0223001F584B514
:100180008F7D12C0273091F02830A1F02430B9F4CF
:10019000809180008F7D03C0809180008F77809355
:1001A00080000DC084B58F7784BD09C08091B000F8
:1001B0008F7703C08091B0008F7D8093B000F0E016
:1001C000EE0FFF1FE458FF4FA591B4919FB7F8942D
:1001D000611104C08C913095382302C0EC913E2B04
:1001E0003C939FBF08958E3008F08E5087708064D6
:1001F00080937C0080917A00806480937A00809163
:100200007A0086FDFCCF809178002091790090E003
:10021000922B08953FB7F8948091BB019091BC0157
:10022000A091BD01B091BE0126B5A89B05C02F3F8E
:1002300019F00196A11DB11D3FBFBA2FA92F982F0C
:100240008827820F911DA11DB11DBC01CD0142E087
:10025000660F771F881F991F4A95D1F708958F92CF
:100260009F92AF92BF92CF92DF92EF92FF926B017B
:100270007C010E940A014B015C01C114D104E1041C
:10028000F104F1F00E940A01DC01CB0188199909FF
:10029000AA09BB09883E9340A105B10570F321E08E
:1002A000C21AD108E108F10888EE880E83E0981E92
:1002B000A11CB11CC114D104E104F10419F7DDCF74
:1002C000FF90EF90DF90CF90BF90AF909F908F9076
:1002D0000895CF92DF92EF92FF920F931F93CF93E7
:1002E000DF936C017A018B01C0E0D0E0CE15DF0511
:1002F00081F0D8016D918D01D601ED91FC910190B5
:10030000F081E02DC6010995892B11F02196EECFE1
:100310007E01C701DF91CF911F910F91FF90EF9068
:10032000DF90CF900895FC01538D448D252F30E050
:10033000842F90E0821B930B541710F0CF960895F2
:1003400001970895FC01918D828D981761F0828D3F
:10035000DF01A80FB11D5D968C91928D9F5F9F73F9
:10036000928F90E008958FEF9FEF0895FC01918D9B
:10037000828D981731F0828DE80FF11D858D90E008
:1003800008958FEF9FEF0895FC01918D228D892FA5
:1003900090E0805C9F4F821B91098F73992708958D
:1003A0008FEB91E00E94C40121E0892B09F420E049
:1003B000822F0895FC01848DDF01A80FB11DA35A7F
:1003C000BF4F2C91848D90E001968F739927848F75
:1003D000A689B7892C93A089B1898C918370806498
:1003E0008C93938D848D981306C00288F389E02D39
:1003F00080818F7D80830895EF92FF920F931F93EA
:10040000CF93DF93EC0181E0888F9B8D8C8D9813C7
:1004100005C0E889F989808185FD26C0F62E0B8DFF
:1004200010E00F5F1F4F0F731127E02E8C8DE81225
:100430000CC00FB607FCFACFE889F989808185FFE7
:10044000F5CFCE010E94DA01F1CF8B8DFE01E80FCE
:10045000F11DE35AFF4FF0829FB7F8940B8FEA89A2
:10046000FB89808180620AC09FB7F894EE89FF897A
:100470006083E889F98980818370806480839FBF6D
:1004800081E090E0DF91CF911F910F91FF90EF906D
:100490000895CF93DF93EC01888D8823C9F0EA8912
:1004A000FB89808185FD05C0A889B9898C9186FD6D
:1004B0000FC00FB607FCF5CF808185FFF2CFA8896A
:1004C000B9898C9185FFEDCFCE010E94DA01E7CF8B
:1004D000DF91CF91089580E090E0892B29F00E9470
:1004E000D00181110C9400000895CF93DF93EC01AB
:1004F00060E08E810E94A60061E08E810E94A600CD
:1005000060E08E810E94A6008BE891E00197F1F7F0
:10051000DF91CF910895CF92DF92EF92FF920F93E8
:100520001F93CF93DF936C017C0187E0E80EF11CF1
:10053000C0E0D0E0062F10E0B8010C2E02C0759587
:1005400067950A94E2F76170F70181917F010E943B
:10055000A6002196C430D10579F7C601DF91CF916D
:100560001F910F91FF90EF90DF90CF900C94750248
:10057000CF92DF92EF92FF920F931F93CF93DF936F
:10058000EC01F62E642F8C810E94A6008D818F3F96
:1005900019F060E00E94A6008F850F2D10E084FF07
:1005A00025C06E0187E0C80ED11CE12CF12CB801EA
:1005B0000E2C02C0759567950A94E2F76170F601FA
:1005C00081916F010E94A600FFEFEF1AFF0A88E0F9
:1005D000E816F10461F7CE01DF91CF911F910F91E1
:1005E000FF90EF90DF90CF900C947502B80184E0FB
:1005F000759567958A95E1F7CE010E948B026F2D64
:10060000CE01DF91CF911F910F91FF90EF90DF907E
:10061000CF900C948B0240E0682F8CE592E00C9414
:10062000B802CF93DF93823028F090916B029860EC
:1006300090936B0280936F021092700280E480931B
:10064000710280E18093720280E580937302809151
:1006500060020E948700809161028F3F11F00E942A
:100660008700809162020E948700CCE5D2E09E0163
:100670002C55324080916B0284FD03C084E090E0F1
:1006800002C088E090E021962817390724F48E8173
:100690000E948700ECCF8BE39DE00197F1F760E0CB
:1006A000809160020E94A60060E0809162020E9438
:1006B000A600809161028F3F19F060E00E94A600C1
:1006C00080916B0284FD20C063E08CE592E00E9483
:1006D0008B02CBE4D6E4CE010197F1F763E08CE521
:1006E00092E00E948B022197F1F763E08CE592E0A3
:1006F0000E948B0283E592E00197F1F762E08CE5BE
:1007000092E00E948B0215C080620E940B038BE472
:1007100096E40197F1F780916B0280620E940B03CF
:1007200083E592E00197F1F780916B0280620E946D
:100730000B0380916B0280620E940B0384E0809324
:100740006C028CE00E940B0381E00E940B038BE3A0
:100750009FE10197F1F782E080936D0286E0DF91DF
:10076000CF910C940B0341E00E94B80281E090E02D
:100770000895089580E090E008950E94A80B611507
:10078000710579F0FB0101900020E9F73197AF0185
:10079000461B570BDC01ED91FC910280F381E02DAB
:1007A000099480E090E008958F929F92AF92BF925B
:1007B000EF92FF920F931F93CF93DF93CDB7DEB7E6
:1007C000A1970FB6F894DEBF0FBECDBF7C01FA0132
:1007D000CB0119A2223008F42AE08E010F5D1F4FD1
:1007E000822E912CA12CB12CBF01A50194010E9455
:1007F000610BF901CA01015011096A3014F4605DFE
:1008000001C0695CD8016C93232B242B252B61F745
:10081000B801C7010E94BF03A1960FB6F894DEBFCE
:100820000FBECDBFDF91CF911F910F91FF90EF9041
:10083000BF90AF909F908F9008954F925F926F926C
:100840007F928F929F92AF92BF92CF92DF92EF9260
:10085000FF921F93CF93DF93EC016A017B019A0112
:10086000AB01C701B6010E945C0B882319F06EE151
:1008700071E027C046015701E894B7F82FEF3FEF2A
:100880004FE75FE7C501B4010E945C0B81110DC009
:100890002FEF3FEF4FE75FE7C501B4010E949209D8
:1008A00018161CF462E271E00CC02FEF3FEF4FE727
:1008B0005FE4C701B6010E94EA0A1816A4F466E2D2
:1008C00071E0CE01DF91CF911F91FF90EF90DF900B
:1008D000CF90BF90AF909F908F907F906F905F90E0
:1008E0004F900C94BF032FEF3FEF4FE75FECC70132
:1008F000B6010E94920987FDE2CF20E030E0A90115
:10090000C701B6010E94920987FF0EC0E881F981F4
:100910000190F081E02D6DE2CE0109955C01F7FABE
:10092000F094F7F8F09402C0A12CB12C2AE037ED36
:1009300043EA5BE3C701B6010E9426092B013C0193
:100940000E94090A6B017C010E94380A9B01AC01DC
:10095000C301B2010E9425092B013C012AE0B70125
:10096000A601CE010E94D4037C01EA0CFB1CE881A5
:10097000F9810190F081E02D6EE2CE010995E80E3B
:10098000F91E13E0115021F120E030E040E251E483
:10099000C301B2010E94EF0A2B013C010E94090A27
:1009A0004B01A12CB12C2AE0B501A401CE010E947B
:1009B000D403E80EF91EC501B4010E94380A9B0158
:1009C000AC01C301B2010E9425092B013C01DACF21
:1009D000C701DF91CF911F91FF90EF90DF90CF90F3
:1009E000BF90AF909F908F907F906F905F904F904F
:1009F0000895CF92DF92EF92FF92CF93DF936B0136
:100A00007C016DE28FEB91E00E94FC01EC01442738
:100A10005527BA014C195D096E097F092AE08FEB51
:100A200091E00E94D4038C0F9D1FDF91CF91FF9026
:100A3000EF90DF90CF9008950C94BF031F920F9218
:100A40000FB60F9211242F933F938F939F93AF93E1
:100A5000BF938091B7019091B801A091B901B09175
:100A6000BA013091B60123E0230F2D3720F401960F
:100A7000A11DB11D05C026E8230F0296A11DB11DC1
:100A80002093B6018093B7019093B801A093B90168
:100A9000B093BA018091BB019091BC01A091BD01BE
:100AA000B091BE010196A11DB11D8093BB01909331
:100AB000BC01A093BD01B093BE01BF91AF919F91C6
:100AC0008F913F912F910F900FBE0F901F9018950F
:100AD0001F920F920FB60F9211242F933F934F93B3
:100AE0005F936F937F938F939F93AF93BF93EF9396
:100AF000FF938FEB91E00E94DA01FF91EF91BF919C
:100B0000AF919F918F917F916F915F914F913F91A5
:100B10002F910F900FBE0F901F9018951F920F925C
:100B20000FB60F9211242F938F939F93EF93FF9300
:100B3000E091CF01F091D0018081E091D501F09159
:100B4000D60182FD12C090818091D8018F5F8F7392
:100B50002091D901821751F0E091D801F0E0E154E1
:100B6000FE4F958F8093D80101C08081FF91EF9156
:100B70009F918F912F910F900FBE0F901F901895FE
:100B8000EFEBF1E01382128288EE93E0A0E0B0E098
:100B900084839583A683B78384E091E091838083E7
:100BA00085EC90E09587848784EC90E09787868732
:100BB00080EC90E0918B808B81EC90E0938B828B2A
:100BC00082EC90E0958B848B86EC90E0978B868B03
:100BD000118E128E138E148EECE5F2E013821282C7
:100BE00086E191E09183808388E0848387E0858338
:100BF00086E0868385E0878384E0808783E0818741
:100C000082E082871386148615861686178681E011
:100C10000C941103789484B5826084BD84B581609E
:100C200084BD85B5826085BD85B5816085BD8091B7
:100C30006E00816080936E0010928100809181002F
:100C40008260809381008091810081608093810027
:100C5000809180008160809380008091B1008460E9
:100C60008093B1008091B00081608093B00080914A
:100C70007A00846080937A0080917A008260809309
:100C80007A0080917A00816080937A0080917A0066
:100C9000806880937A001092C100E091CF01F091BA
:100CA000D00182E08083E091CB01F091CC011082F1
:100CB000E091CD01F091CE018FEC80831092D701AD
:100CC000E091D301F091D40186E08083E091D101DD
:100CD000F091D201808180618083E091D101F09117
:100CE000D201808188608083E091D101F091D201AE
:100CF000808180688083E091D101F091D201808170
:100D00008F7D808389E00E94870089E00E948700B0
:100D1000E1E7F0E0E491E33019F150F4E130D1F093
:100D2000E230E1F584B5806284BD86E988BD3AC0D1
:100D3000E73011F1E83049F1E43081F5809180002D
:100D400080628093800086E990E090938B0080938E
:100D50008A0028C084B5806884BD86E987BD22C02A
:100D60008091800080688093800086E990E0909375
:100D700089008093880016C08091B00080688093BD
:100D8000B00086E98093B3000DC08091B00080620E
:100D90008093B00086E98093B40004C061E089E0EC
:100DA0000E94A60082E00E94110381E00E940B03D2
:100DB0008BE39FE10197F1F788EEC82E83E0D82EF0
:100DC000E12CF12CC6E9D0E080E10E94F300BC01E7
:100DD000990F880B990B0E943A0A2091B201309129
:100DE000B3014091B4015091B5010E9426094B0115
:100DF0005C016093B2017093B3018093B40190934E
:100E0000B50162E070E080E090E00E942F01219740
:100E1000D9F620E030E046E153E4C501B4010E9478
:100E200097096093B2017093B3018093B4019093DA
:100E3000B50123E738E645E151E40E94EF0A20E0DE
:100E400030E04AE754E40E9497096093AE01709342
:100E5000AF018093B0019093B101C6E9D0E081E188
:100E60000E94F300BC01990F880B990B0E943A0A6B
:100E70002091AA013091AB014091AC015091AD019C
:100E80000E9426094B015C016093AA017093AB019B
:100E90008093AC019093AD0162E070E080E090E05F
:100EA0000E942F012197D9F620E030E046E153E47B
:100EB000C501B4010E9497096093AA017093AB0128
:100EC0008093AC019093AD0129E831E44CE950E402
:100ED0000E94EF0A20E030E040E85AE30E94EF0A67
:100EE0006093A6017093A7018093A8019093A90134
:100EF00020E030E040E250E40E9425096093A20126
:100F00007093A3018093A4019093A50120E030E0A9
:100F100040E251E40E94EF0A60939E0170939F01AA
:100F20008093A0019093A1018FB7F8944090B701EE
:100F30005090B8016090B9017090BA018FBFC301A1
:100F4000B201A70196010E94830B49015A016AE28E
:100F500071E08FEB91E00E941C054091B20150912D
:100F6000B3016091B4017091B5018FEB91E00E94E3
:100F70001D0464E371E08FEB91E00E941C05409139
:100F8000AA015091AB016091AC017091AD018FEB62
:100F900091E00E941D0460E471E08FEB91E00E94FB
:100FA0001C054091AE015091AF016091B00170916C
:100FB000B1018FEB91E00E941D046CE471E08FEBB6
:100FC00091E00E941C054091A6015091A7016091FB
:100FD000A8017091A9018FEB91E00E941D0464E5C6
:100FE00071E08FEB91E00E941C054091A2015091AD
:100FF000A3016091A4017091A5018FEB91E00E9483
:101000001D0462E671E08FEB91E00E941C054091A7
:101010009E0150919F016091A0017091A1018FEB01
:1010200091E00E941D046BE671E08FEB91E00E945D
:101030001C0577FE05C0C301B2010E94F90407C078
:101040002AE0B301A2018FEB91E00E94D40367E78D
:1010500071E08FEB91E00E941C05B7FE05C0C50151
:10106000B4010E94F90407C02AE0B501A4018FEB86
:1010700091E00E94D40360E871E08FEB91E00E9460
:10108000BF0368EC70E080E090E00E942F01409088
:101090009E0150909F016090A0017090A101A3015A
:1010A000920160919A0170919B0180919C019091B5
:1010B0009D010E94260960939A0170939B01809381
:1010C0009C0190939D018091960190919701A09130
:1010D0009801B09199010196A11DB11D80939601CF
:1010E00090939701A0939801B09399012091AE013C
:1010F0003091AF014091B0015091B101C301B201F3
:101100000E94EF0A2B013C016093920170939301BE
:101110008093940190939501C501B4010E943A0A0D
:10112000A30192010E94EF0A20E030E041E655E47D
:101130000E94970960938E0170938F0180939001B4
:1011400090939101E0916F02E23010F4E15001C000
:10115000E1E0F0E0E45AFD4F8489805F80680E94FE
:101160000B0362E371E08CE592E00E941C0568E5E8
:1011700072E080E090E00E942F01E1E080916F0238
:101180008111E0E0E195F0E0E45AFD4F84898F5F42
:1011900080680E940B0340919201509193016091ED
:1011A0009401709195018CE592E00E941D0463E822
:1011B00071E08CE592E00E941C054091AE015091D7
:1011C000AF016091B0017091B1018CE592E00E9495
:1011D0001D0466E871E08CE592E00E941C05E09138
:1011E0006F02E23010F4E15001C0E1E0F0E0E45AB7
:1011F000FD4F84898F5F80680E940B0340918E01B0
:1012000050918F0160919001709191018CE592E075
:101210000E941D0468E871E08CE592E00E941C05C4
:1012200040919E0150919F016091A0017091A10198
:101230008CE592E00E941D046CE871E08CE592E080
:101240000E941C050E946B02BDCD5058BB27AA27E7
:101250000E943D090C94B00A0E94A20A38F00E9434
:10126000A90A20F039F49F3F19F426F40C949F0A40
:101270000EF4E095E7FB0C94990AE92F0E94C10A4D
:1012800058F3BA17620773078407950720F079F4BB
:10129000A6F50C94E30A0EF4E0950B2EBA2FA02DC0
:1012A0000B01B90190010C01CA01A0011124FF2713
:1012B000591B99F0593F50F4503E68F11A16F0400E
:1012C000A22F232F342F4427585FF3CF469537950D
:1012D0002795A795F0405395C9F77EF41F16BA0BD2
:1012E000620B730B840BBAF09150A1F0FF0FBB1F80
:1012F000661F771F881FC2F70EC0BA0F621F731FC9
:10130000841F48F4879577956795B795F7959E3F25
:1013100008F0B0CF9395880F08F09927EE0F9795B6
:10132000879508950E94750A08F481E008950E9447
:10133000AB090C94B00A0E94A90A58F00E94A20AB4
:1013400040F029F45F3F29F00C94990A51110C9454
:10135000E40A0C949F0A0E94C10A68F39923B1F32E
:10136000552391F3951B550BBB27AA2762177307CB
:10137000840738F09F5F5F4F220F331F441FAA1F5F
:10138000A9F335D00E2E3AF0E0E832D0915050401B
:10139000E695001CCAF72BD0FE2F29D0660F771FC9
:1013A000881FBB1F261737074807AB07B0E809F0AF
:1013B000BB0B802DBF01FF2793585F4F3AF09E3F34
:1013C000510578F00C94990A0C94E40A5F3FE4F319
:1013D000983ED4F3869577956795B795F7959F5F77
:1013E000C9F7880F911D9695879597F90895E1E0C3
:1013F000660F771F881FBB1F621773078407BA0722
:1014000020F0621B730B840BBA0BEE1F88F7E0957C
:1014100008950E94C90A88F09F5798F0B92F99271C
:10142000B751B0F0E1F0660F771F881F991F1AF0CF
:10143000BA95C9F714C0B13091F00E94E30AB1E047
:1014400008950C94E30A672F782F8827B85F39F046
:10145000B93FCCF3869577956795B395D9F73EF468
:1014600090958095709561957F4F8F4F9F4F089510
:10147000E89409C097FB3EF490958095709561952E
:101480007F4F8F4F9F4F9923A9F0F92F96E9BB27E4
:101490009395F695879577956795B795F111F8CF60
:1014A000FAF4BB0F11F460FF1BC06F5F7F4F8F4FCB
:1014B0009F4F16C0882311F096E911C0772321F0C1
:1014C0009EE8872F762F05C0662371F096E8862F59
:1014D00070E060E02AF09A95660F771F881FDAF7B0
:1014E000880F9695879597F90895990F0008550FDD
:1014F000AA0BE0E8FEEF16161706E807F907C0F09A
:1015000012161306E407F50798F0621B730B840BA1
:10151000950B39F40A2661F0232B242B252B21F47B
:1015200008950A2609F4A140A6958FEF811D811D1B
:10153000089597F99F6780E870E060E008959FEF55
:1015400080EC089500240A9416161706180609065A
:10155000089500240A941216130614060506089529
:10156000092E0394000C11F4882352F0BB0F40F4B1
:10157000BF2B11F460FF04C06F5F7F4F8F4F9F4FF1
:10158000089557FD9058440F551F59F05F3F71F073
:101590004795880F97FB991F61F09F3F79F08795DA
:1015A0000895121613061406551FF2CF4695F1DF63
:1015B00008C0161617061806991FF1CF86957105F3
:1015C000610508940895E894BB2766277727CB0127
:1015D00097F908950E94750A08F48FEF08950E9404
:1015E000020B0C94B00A0E94A20A38F00E94A90AC9
:1015F00020F0952311F00C94990A0C949F0A112461
:101600000C94E40A0E94C10A70F3959FC1F3950FF0
:1016100050E0551F629FF001729FBB27F00DB11D76
:10162000639FAA27F00DB11DAA1F649F6627B00D06
:10163000A11D661F829F2227B00DA11D621F739FEF
:10164000B00DA11D621F839FA00D611D221F749FFD
:101650003327A00D611D231F849F600D211D822F44
:10166000762F6A2F11249F5750409AF0F1F088236B
:101670004AF0EE0FFF1FBB1F661F771F881F915098
:101680005040A9F79E3F510580F00C94990A0C94A4
:10169000E40A5F3FE4F3983ED4F386957795679527
:1016A000B795F795E7959F5FC1F7FE2B880F911DC2
:1016B0009695879597F908950E94750A880B990B5E
:1016C0000895A1E21A2EAA1BBB1BFD010DC0AA1F83
:1016D000BB1FEE1FFF1FA217B307E407F50720F09B
:1016E000A21BB30BE40BF50B661F771F881F991F16
:1016F0001A9469F760957095809590959B01AC015F
:10170000BD01CF010895052E97FB1EF400940E94A1
:101710009A0B57FD07D00E94610B07FC03D04EF4D3
:101720000C949A0B50954095309521953F4F4F4F13
:101730005F4F089590958095709561957F4F8F4F7D
:101740009F4F0895EE0FFF1F0590F491E02D09942F
:0E17500081E090E0F8940C94AD0BF894FFCF7C
:10175E0000000000FC01690193014902C401A201CD
:10176E00B60100000000B3036901BA03B9036E614C
:10177E006E00696E66006F76660073616D706C65E3
:10178E00313A20002C2073616D706C65323A200066
:10179E002C20766F6C746167653A20002C20766180
:1017AE006C3A20002C2061637475616C76616C3A22
:1017BE0020002C20616D70733A20002C206D696C16
:1017CE00697365633A20002C2074696D653A2000B8
:0E17DE000D0A00572000560057482000410019
:00000001FF
